:090E0600031D010114C10CC10D12
:100E9A00120E5C120EFD120F44120ECE120F111218
:0A0EAA000F36120EB4120E3280FB58
:040E7F00EF4E6016BC
:100E830000000075220B7523BED523FDD522FAEF92
:040E93001F70E91EC5
:030E970080E622D0
:100E5C0053A01F43A0A0E4F5807F01FE120E7F5328
:100E6C00A01F43A0807580FF7F017E00120E7F5370
:030E7C00A01F2292
:0E0F360053A01F7F017E00120E7F43A0802279
:100EFD0053A01F43A0E07F017E00120E7F7580FF7F
:040F0D0053A01F22AC
:090E0F000148000146000147FF03
:03000B00020D28BB
:100D2800C0E0C0D0C28C758A91758CFFE51E602D1D
:100D3800E5474548F5800546E546D3951F500375B8
:100D48004800E546D3951F4009E54694645003756D
:100D580048FFE546B46406754600854780D28CD0C6
:040D6800D0D0E032D5
:100ECE00D2AF438E805389F0438901758A91758C18
:080EDE00FFC28DD28CD2A922C3
:100CC900E5B7B2E5B0864C4544E6A8A1E5BC8FE896
:100CD900AEBEE4B8BA2562640D0A00E5B7B2E5B064
:100CE9008650574DE58DA0E7A9BAE6AF94E8AEBEA8
:100CF900E4B8BA25632562640D0A00E4BDA0E8BE24
:100D090093E585A5E4BA86E697A0E69588E79A84EF
:0F0D1900E99D9EE6B395E68C87E4BBA40D0A0026
:060E1800C10AC109C10B73
:100EB400D2AFD2AC759850438E01538EFB75D7FEDA
:0A0EC40075D6FF438E10E4F50822F6
:08000300200AFDD20A8F9922A8
:100BD500E508D394074012E508F4600B740925086D
:100BE500F8E4F6150880F0D209E509B42315E50AFD
:100BF500B44C10E50CB4500BE50EB44006E50F649B
:100C0500216012E508F4600B74092508F8E4F6156F
:100C15000880F0D209E50BC394304007E50BD39467
:100C2500344012E508F4600B74092508F8E4F6155C
:100C35000880F0D209E50DC394304007E50DD39443
:100C4500354012E508F4600B74092508F8E4F6153B
:060C55000880F0D2092224
:03002300020D6C5F
:100D6C00C0E0C0D075D000C00030981C300902C261
:100D7C0009E508D39406400375080074092508F8A2
:100D8C00A6990508D20BC298309904C20AC299D010
:060D9C0000D0D0D0E032CF
:05001600AE070200032B
:100DA2008D4E2009238F1E854E1D7BFF7A0C79C93B
:100DB2008F251206067BFF7A0C79E4752525E54E10
:100DC20075F014A4F52680093009097BFF7A0D79A4
:050DD2000412060622D8
:030E1E00014F0081
:0E0F4400D2AFD2AD439D0175BC8843972022E9
:03002B00020F526F
:070F520085BE4F75BC88321B
:100F24007E00E4FFFC7D0512054EAC06AD07E4022D
:020F3400012B8F
:08000E004348313A25660A005F
:0A0E2100083E358637BD0000807FD3
:100EE600E4F55074422550F8E6FF1200030550E57C
:060EF60050C3940440ED1E
:010EFC0022D3
:100E3200AF41AE40AD3FAC3EE4FBFAF97840120060
:100E4200358F418E408D3F8C3E7BFF7A00790E8F2D
:0A0E5200288E278D268C2502060647
:060E2B00014CFF014DFF28
:03001B00020C5B79
:100C5B00C0E0C0F0C0D075D000C000C007C28CAFE0
:100C6B004C7801EF08800123D8FDF54CA2B2E43398
:100C7B0044FE524CE54C701330B210754CFFE51D21
:100C8B0075F0058485F01D051DD20CAF4D7801EF75
:100C9B0008800123D8FDF54DA2B3E43344FE524D39
:100CAB00E54D700D30B30A754DFF531E03051ED273
:0E0CBB000CD28CD007D000D0D0D0F0D0E032D8
:100F1100438E4053890F758B9A758DA9C28FD28EDE
:030F2100D2AB222E
:100A1300E51E24FE6053147003020AAC1470030233
:100A23000AFC24036003020B487580FE7547FEE44D
:100A3300F549E51E64016003020B48120DDF7F32A6
:100A43007E00120E7FAF807801EF08800123D8FD6E
:100A5300F580AF477801EF08800123D8FDF54705FE
:100A630049E549C3940840CA2275807F75477FE4EE
:100A7300F549E51E64026003020B48120DDF7F3265
:100A83007E00120E7FAF807801EF08800103D8FD4E
:100A9300F580AF477801EF08800103D8FDF54705DE
:100AA30049E549C3940840CA22754A7F754BFEE461
:100AB300F549E51E64036003020B48120DD77F322C
:100AC3007E00120E7FAF4A7801EF08800103D8FD44
:100AD300F54AAF4B7801EF08800123D8FDF54BE5CC
:100AE3004AB4F70BE54BB4EF06754A7F754BFE0529
:100AF30049E549C3940440BA22754AEF754BF7E4BC
:100B0300F549E51E6404703D120DD77F327E001255
:100B13000E7FAF4A7801EF08800123D8FDF54AAF75
:100B23004B7801EF08800103D8FDF54BE54AB4FE8D
:100B33000BE54BB47F06754AEF754BF70549E5495D
:050B4300C3940440BD55
:010B4800228A
:080DD700E54A554BF580F54794
:100DDF00E51D24FE601114601214601314601424B6
:100DEF00047013751F1422751F2822751F3C22755E
:070DFF001F5022751F642242
:10002E00020199E86480F8E933E83360110460F066
:10003E00ED33EC337009E8FCE9FDEAFEEBFF220438
:10004E0060DED3EB9FEA9EE99DE8C2E78CF0C2F733
:10005E0095F0400CE8CCF8E9CDF9EACEFAEBCFFBFF
:10006E0012016485D0F05804700320D5B3E80470F3
:10007E00075002B2D50201A392D5EC0460F7E4CC8E
:10008E00C0E0C398F8603B94186008400DD0E0FBC8
:10009E0002017BE4FBFAC9FC8028E830E406E4C9DF
:1000AE00FBE4CAFCE830E305E4C9CACBFCE854071C
:1000BE006010F8C3E913F9EA13FAEB13FBEC13FC27
:1000CE00D8F130F52FC3E49CFCEF9BFFEE9AFEEDCA
:1000DE0099FDD0E0FBEF4E4D4C701222DB03020176
:1000EE00A0EC2CFCEF33FFEE33FEED33FDED30E7ED
:1000FE00EB02017BEF2BFFEE3AFEED39FDD0E0FB7C
:10010E0050130BBB00030201A3ED13FDEE13FEEF24
:08011E0013FFEC13FC02017B4E
:1001260075F020800E75F010800575F0087D007E54
:10013600007F003392D530D503120560EC334010B2
:10014600EF33FFEE33FEED33FDEC33FCD5F0ED225D
:0E015600E5F0247EA2D513CC92E7CDCEFF2299
:1005A400E5392425F8E60539227822300702782532
:1005B400E475F00112056E0204F62000EB7F2ED2E2
:1005C400008018EF540F2490D43440D4FF30040B2F
:1005D400EF24BFB41A0050032461FFE53A6002150A
:1005E4003A053DE53D7002053C30070D7822E4757F
:1005F400F00112056EEF02053C0200167403D207E7
:100604008003E4C207F5398B228A238924E4F53A6E
:10061400F53CF53DE53A60077F201205DF80F5756E
:100624003BFFC201C200C202C203C205C206C20825
:100634001205ADFF700D3007057F001205F0AF3DC8
:10064400AE3C22B4255FC2D5C2041205ADFF24D04E
:10065400B40A00501A75F00A783A30D50508B6FF86
:100664000106C6A426F620D5047002D20380D9243C
:10067400CFB41A00EF5004C2E5D2040208DDD2015F
:1006840080C6D20080C0D20280BCD2D580BAD20546
:1006940080B47F201205DF2002077401B53A0040C0
:1006A400F11205A4FF1205DF020618D208D2068053
:1006B400951205A4FB1205A4FA1205A4F94A4B707D
:1006C4000679D47A097BFF20022EE53A602A7E005F
:1006D4008E8275830012050F60060EEE653B70F086
:1006E400C2D5EBC0E0EAC0E0E9C0E0EE12093DD0BB
:1006F400E0F9D0E0FAD0E0FB1204F6FF60AAEBC008
:10070400E0EAC0E0E9C0E01205DFD0E02401F9D05E
:10071400E03400FAD0E0FBE53B0460DCD53BD98053
:1007240087D20280A212092060F7E53B700104120F
:1007340001AEA93B600DE53B600914F53B1209C706
:10074400EF60F3EA30E702F404C3995077EAF42542
:100754003B0430E701E404F53B800D12092060C13D
:10076400EA053B253B1201AEEA7838F630E701E4AE
:10077400253B04D53B042005011412093DE4C0E0E7
:100784001209C77838E6601320E70714F61205C784
:10079400802204F6D0E014C0E07F001205C7E53BD8
:1007A40060071205BE153B800B3005031205BED051
:1007B400E0020618D0E00480C512092060A0E53BE1
:1007C400041201AE7838EAF6E53B20050260010424
:0507D400240412093DA0
:1007D90074FF04C0E01209C71205C7E53B200502F2
:1007E90060031205BED0E0B53BE87F451205D1781C
:1007F90038E67F2B30E7047F2DF404C0E01205DFD3
:10080900D0E075F00A84C0F01205C8D0E01205C81E
:10081900020618791080027908C206C2088008D237
:10082900D5790A8004790AC2D5E53B047002F53B03
:10083900E4FAFDFEFF1205A4FC7B08200113120552
:10084900A4FD7B1030000A1205A4FE1205A4FF7B4B
:1008590020EC3382D592D55013C3E43000069FFFB4
:10086900E49EFEE42001039DFDE49CFCE4CBF8C278
:1008790001EC700CCFCECDCCE824F8F870F38017DA
:10088900C3EF33FFEE33FEED33FDEC33FCEB33FB0B
:10089900994002FB0FD8E9EB300105F8D0E0C448D4
:1008A900B201C0E00AEC4D4E4F78207B0070C2EADD
:1008B900B53B0040BCC0E012093FD0F0D0E02001B8
:1008C90004C4C0E0C4B201C0F01205C8D0F0D5F02C
:1008D900EB02061812057E06B553081C5806864C0D
:1008E90006824208204F082844082849069B4308E5
:1008F9002E55075F4607BD4507294709F450068A63
:100909002D068E2E06B12B06922306AF2009DD2A6D
:10091900064A48000006A9E53BB4FF03753B0612E9
:1009290005A4FC1205A4FD1205A4FE1205A4FF7876
:10093900310201DD790AA2D5200314300509B91065
:10094900020404B9080104A2D520060250010420BA
:1009590002689202B53A005034C0E07F2030031992
:100969007F30A20272067205500F120996C202C2A6
:1009790006C205C2087F30800F300503E9C0E012C6
:1009890005DF300503D0E0F9D0E0B53ACC300517E2
:100999007F30B9100C1205DF7F583004077F78804B
:1009A90003B908031205DF3002057F2D0205DF7F39
:1009B900202008F87F2B2006F322920280CF7F00A7
:1009C900B4070050052431F8E6FF22286E756C6CD7
:1009D9002900D2011205A43001F8C201783A30D5B4
:1009E9000108F602064A2D504349581205A424036A
:1009F900B405004001E49009EF931205D0743A124E
:0A0A090005D0D203753A0402081C60
:10016400E9D2E7C933E833F892D5EDD2E7CD33ECE1
:0701740033FC5002B2D5225A
:10017B00EC30E7100FBF000C0EBE00080DBD0004E5
:10018B000BEB6014A2D5EB13FCED92E7FD2274FF91
:10019B00FCFDFEFF22E480F8A2D574FF13FC7D80EA
:0301AB00E480EFFE
:1001AE00F920E72824F950037907E4F42402FB1818
:1001BE00DBFDE624FB5014E9600DE4F618E604F6C8
:0F01CE00B40A08E4F6D9F57401F60A22C2D52264
:1001DD00ED33EC3392D5FA602AB4FF33EDC2E77BF1
:1001ED00FF60067A027902E4227A02790B20D504A7
:1001FD007A027906224E614E002B494E46002D495A
:10020D004E4600E47A08F608DAFC7B00740722E813
:10021D00C0E0ECC0E0EDC0E0EEC0E0EFC0E0EA759C
:10022D00F010A4CAABF075F04DA42BFBE435F0FC37
:10023D00EA2410FAEB34C5FBEC34D9FCEDC2E7FF30
:10024D0075F056A4F42411C5F0F434C58FF0A42A2A
:10025D00E5F03BE43CF620E7141204B6D0E0FFD005
:10026D00E0FED0E0FDD0E0FC1203E98014F40412AE
:10027D0004B6D0E0FFD0E0FED0E0FDD0E0FC1202ED
:10028D00E0D0E0F8E6FAEDD2E7CD33EC332482FB93
:10029D00E4C3CF33CFCE33CECD33CD33DBF37B07BA
:1002AD0075F00A846004F6081B0AE5F0F6088FF075
:1002BD00740AA4FFACF08EF0740AA42CFEACF050BE
:1002CD00010C8DF0740AA42CFDE435F0F608DBDE8C
:0302DD0074072281
:1002E000EC4D6011E8497017ED33EC3304600DE418
:1002F000FCFFFEFD22E933E8330470F80201991295
:10030000016458046009E4CC248150062850090295
:1003100001A32840030201A0C0E0EB4A7044B98069
:1003200006D0E0FB02018FEF4E701CBD8008EBFF92
:10033000EAFEE9FD80EBE98DF0A4FEE5F00203C9D9
:10034000E9CDF9EAFEEBFFEF89F0A4FCE5F0CE89F8
:10035000F0A42EFFE435F0CD89F0A42DFEE435F0B5
:100360008067EF4E7005BD80D780C3EF8BF0A4ACE3
:10037000F0EE8BF0A42CFCE435F0F8EF8AF0A42C1E
:10038000E5F038FCE433CB8DF0A42CFCE5F03BF831
:10039000EE8AF0A42CFCE5F038F8E433CF89F0A421
:1003A0002CFCE5F038CF3400CE89F0A42FFFE5F027
:1003B0003EFEE433C98DF0A42EFEE5F039CD8AF07F
:1003C000A42FFFE5F03EFEE43DFD33D0E0FB5007F7
:1003D0000BBB000F0201A3EC2CFCEF33FFEE33FE4E
:0603E000ED33FD02017B7C
:1003E6000201A3EC5D046005E8590470030201995B
:1003F600120164580460F6EC4860F2EC7004FDFEED
:10040600FF22C860DB2481C85009C39860025006E9
:100416000201A09850CAF582E9294B4A7005AB82C1
:1004260002018F75F0007C1A7880C3EF9BEE9AED7F
:1004360099400DC3EF9BFFEE9AFEED99FDE842F061
:10044600DC23ACF0D0E0FFD0E0FED0E0FDAB8220B4
:10045600E7101BEB60BAEC2CFCEF33FFEE33FEED3E
:1004660033FD02017BE803F830E705C0F075F000C4
:10047600EF2FFFEE33FEED33FD40B830E7C280AA22
:100486003F8000004120000042C80000447A00007E
:10049600461C400047C35000497424004B18968000
:1004A6004CBEBC205A0E1BCA6753C21C749DC5AEF7
:1004B600FB60065407601C23231204E4EB543860E7
:1004C600091204D01204DF1202E0ECF8EDF9EEFA9C
:1004D600EFCB22EB1204DF80F1543803241C900486
:1004E60086FE93FC0EEE93FD0EEE930ECE93FF2248
:03000000020B49A7
:0C0B4900787FE4F6D8FD758150020B9017
:1004F600BB010689828A83E0225002E722BBFE0204
:09050600E32289828A83E4932236
:10050F00BB010CE58229F582E5833AF583E02250A1
:10051F0006E92582F8E622BBFE06E92582F8E222EB
:0D052F00E58229F582E5833AF583E4932205
:10053C00BB010689828A83F0225002F722BBFE019E
:02054C00F32298
:10054E00EF8DF0A4A8F0CF8CF0A428CE8DF0A42EC1
:02055E00FE227B
:0E056000C3E49FFFE49EFEE49DFDE49CFC22AC
:10056E00FAE6FB0808E6F925F0F618E6CA3AF6228E
:10057E00D083D082F8E4937012740193700DA3A30C
:10058E0093F8740193F5828883E473740293686020
:06059E00EFA3A3A380DF20
:100B5500020E9AE493A3F8E493A34003F68001F20E
:100B650008DFF48029E493A3F85407240CC8C333A1
:100B7500C4540F4420C8834004F456800146F6DF70
:100B8500E4800B0102040810204080900E06E47EEC
:100B9500019360BCA3FF543F30E509541FFEE49365
:100BA500A360010ECF54C025E060A840B8E493A32C
:100BB500FAE493A3F8E493A3C8C582C8CAC583CA57
:100BC500F0A3C8C582C8CAC583CADFE9DEE780BE0F
:010E310000C0
:00000001FF
